{
  "contractName": "GaslessForwarder",
  "abi": [
    {
      "inputs": [
        {
          "internalType": "address",
          "name": "_relayer",
          "type": "address"
        }
      ],
      "stateMutability": "nonpayable",
      "type": "constructor"
    },
    {
      "inputs": [],
      "name": "ECDSAInvalidSignature",
      "type": "error"
    },
    {
      "inputs": [
        {
          "internalType": "uint256",
          "name": "length",
          "type": "uint256"
        }
      ],
      "name": "ECDSAInvalidSignatureLength",
      "type": "error"
    },
    {
      "inputs": [
        {
          "internalType": "bytes32",
          "name": "s",
          "type": "bytes32"
        }
      ],
      "name": "ECDSAInvalidSignatureS",
      "type": "error"
    },
    {
      "anonymous": false,
      "inputs": [
        {
          "indexed": true,
          "internalType": "address",
          "name": "user",
          "type": "address"
        },
        {
          "indexed": true,
          "internalType": "address",
          "name": "tokenContract",
          "type": "address"
        },
        {
          "indexed": true,
          "internalType": "address",
          "name": "to",
          "type": "address"
        },
        {
          "indexed": false,
          "internalType": "uint256",
          "name": "amount",
          "type": "uint256"
        },
        {
          "indexed": false,
          "internalType": "uint256",
          "name": "nonce",
          "type": "uint256"
        }
      ],
      "name": "TransactionForwarded",
      "type": "event"
    },
    {
      "inputs": [
        {
          "internalType": "address",
          "name": "",
          "type": "address"
        }
      ],
      "name": "nonces",
      "outputs": [
        {
          "internalType": "uint256",
          "name": "",
          "type": "uint256"
        }
      ],
      "stateMutability": "view",
      "type": "function"
    },
    {
      "inputs": [],
      "name": "relayer",
      "outputs": [
        {
          "internalType": "address",
          "name": "",
          "type": "address"
        }
      ],
      "stateMutability": "view",
      "type": "function"
    },
    {
      "inputs": [
        {
          "internalType": "address",
          "name": "tokenContract",
          "type": "address"
        },
        {
          "internalType": "address",
          "name": "to",
          "type": "address"
        },
        {
          "internalType": "uint256",
          "name": "amount",
          "type": "uint256"
        },
        {
          "internalType": "uint256",
          "name": "nonce",
          "type": "uint256"
        },
        {
          "internalType": "bytes",
          "name": "signature",
          "type": "bytes"
        }
      ],
      "name": "forward",
      "outputs": [],
      "stateMutability": "nonpayable",
      "type": "function"
    }
  ],
  "bytecode": "0x608060405234801562000010575f80fd5b506040516200106e3803806200106e8339818101604052810190620000369190620000e1565b805f806101000a81548173ffffffffffffffffffffffffffffffffffffffff021916908373ffffffffffffffffffffffffffffffffffffffff1602179055505062000111565b5f80fd5b5f73ffffffffffffffffffffffffffffffffffffffff82169050919050565b5f620000ab8262000080565b9050919050565b620000bd816200009f565b8114620000c8575f80fd5b50565b5f81519050620000db81620000b2565b92915050565b5f60208284031215620000f957620000f86200007c565b5b5f6200010884828501620000cb565b91505092915050565b610f4f806200011f5f395ff3fe608060405234801561000f575f80fd5b506004361061003f575f3560e01c80637ecebe00146100435780638406c07914610073578063d4154e1114610091575b5f80fd5b61005d600480360381019061005891906107a6565b6100ad565b60405161006a91906107e9565b60405180910390f35b61007b6100c2565b6040516100889190610811565b60405180910390f35b6100ab60048036038101906100a69190610990565b6100e5565b005b6001602052805f5260405f205f915090505481565b5f8054906101000a900473ffffffffffffffffffffffffffffffffffffffff1681565b5f8054906101000a900473ffffffffffffffffffffffffffffffffffffffff1673ffffffffffffffffffffffffffffffffffffffff163373ffffffffffffffffffffffffffffffffffffffff1614610172576040517f08c379a000000000000000000000000000000000000000000000000000000000815260040161016990610a7d565b60405180910390fd5b5f858585853060405160200161018c959493929190610b00565b6040516020818303038152906040528051906020012090505f816040516020016101b69190610bdb565b6040516020818303038152906040528051906020012090505f6101d98285610473565b90508460015f8373ffffffffffffffffffffffffffffffffffffffff1673ffffffffffffffffffffffffffffffffffffffff1681526020019081526020015f20541461025a576040517f08c379a000000000000000000000000000000000000000000000000000000000815260040161025190610c4a565b60405180910390fd5b60015f8273ffffffffffffffffffffffffffffffffffffffff1673ffffffffffffffffffffffffffffffffffffffff1681526020019081526020015f205f8154809291906102a790610c95565b91905055505f8873ffffffffffffffffffffffffffffffffffffffff1663dd62ed3e83306040518363ffffffff1660e01b81526004016102e8929190610cdc565b602060405180830381865afa158015610303573d5f803e3d5ffd5b505050506040513d601f19601f820116820180604052508101906103279190610d17565b90508681101561036c576040517f08c379a000000000000000000000000000000000000000000000000000000000815260040161036390610d8c565b60405180910390fd5b8873ffffffffffffffffffffffffffffffffffffffff166323b872dd838a8a6040518463ffffffff1660e01b81526004016103a993929190610daa565b6020604051808303815f875af11580156103c5573d5f803e3d5ffd5b505050506040513d601f19601f820116820180604052508101906103e99190610e14565b508773ffffffffffffffffffffffffffffffffffffffff168973ffffffffffffffffffffffffffffffffffffffff168373ffffffffffffffffffffffffffffffffffffffff167fb22c876f3d2a623d7686560113faf556894c87778955b975e4ad1044e93979218a8a604051610460929190610e3f565b60405180910390a4505050505050505050565b5f805f80610481868661049d565b92509250925061049182826104f2565b82935050505092915050565b5f805f60418451036104dd575f805f602087015192506040870151915060608701515f1a90506104cf88828585610654565b9550955095505050506104eb565b5f600285515f1b9250925092505b9250925092565b5f600381111561050557610504610e66565b5b82600381111561051857610517610e66565b5b0315610650576001600381111561053257610531610e66565b5b82600381111561054557610544610e66565b5b0361057c576040517ff645eedf00000000000000000000000000000000000000000000000000000000815260040160405180910390fd5b600260038111156105905761058f610e66565b5b8260038111156105a3576105a2610e66565b5b036105e757805f1c6040517ffce698f70000000000000000000000000000000000000000000000000000000081526004016105de91906107e9565b60405180910390fd5b6003808111156105fa576105f9610e66565b5b82600381111561060d5761060c610e66565b5b0361064f57806040517fd78bce0c0000000000000000000000000000000000000000000000000000000081526004016106469190610ea2565b60405180910390fd5b5b5050565b5f805f7f7fffffffffffffffffffffffffffffff5d576e7357a4501ddfe92f46681b20a0845f1c1115610690575f600385925092509250610731565b5f6001888888886040515f81526020016040526040516106b39493929190610ed6565b6020604051602081039080840390855afa1580156106d3573d5f803e3d5ffd5b5050506020604051035190505f73ffffffffffffffffffffffffffffffffffffffff168173ffffffffffffffffffffffffffffffffffffffff1603610724575f60015f801b93509350935050610731565b805f805f1b935093509350505b9450945094915050565b5f604051905090565b5f80fd5b5f80fd5b5f73ffffffffffffffffffffffffffffffffffffffff82169050919050565b5f6107758261074c565b9050919050565b6107858161076b565b811461078f575f80fd5b50565b5f813590506107a08161077c565b92915050565b5f602082840312156107bb576107ba610744565b5b5f6107c884828501610792565b91505092915050565b5f819050919050565b6107e3816107d1565b82525050565b5f6020820190506107fc5f8301846107da565b92915050565b61080b8161076b565b82525050565b5f6020820190506108245f830184610802565b92915050565b610833816107d1565b811461083d575f80fd5b50565b5f8135905061084e8161082a565b92915050565b5f80fd5b5f80fd5b5f601f19601f8301169050919050565b7f4e487b71000000000000000000000000000000000000000000000000000000005f52604160045260245ffd5b6108a28261085c565b810181811067ffffffffffffffff821117156108c1576108c061086c565b5b80604052505050565b5f6108d361073b565b90506108df8282610899565b919050565b5f67ffffffffffffffff8211156108fe576108fd61086c565b5b6109078261085c565b9050602081019050919050565b828183375f83830152505050565b5f61093461092f846108e4565b6108ca565b9050828152602081018484840111156109505761094f610858565b5b61095b848285610914565b509392505050565b5f82601f83011261097757610976610854565b5b8135610987848260208601610922565b91505092915050565b5f805f805f60a086880312156109a9576109a8610744565b5b5f6109b688828901610792565b95505060206109c788828901610792565b94505060406109d888828901610840565b93505060606109e988828901610840565b925050608086013567ffffffffffffffff811115610a0a57610a09610748565b5b610a1688828901610963565b9150509295509295909350565b5f82825260208201905092915050565b7f4f6e6c792072656c617965722063616e20666f727761726400000000000000005f82015250565b5f610a67601883610a23565b9150610a7282610a33565b602082019050919050565b5f6020820190508181035f830152610a9481610a5b565b9050919050565b5f8160601b9050919050565b5f610ab182610a9b565b9050919050565b5f610ac282610aa7565b9050919050565b610ada610ad58261076b565b610ab8565b82525050565b5f819050919050565b610afa610af5826107d1565b610ae0565b82525050565b5f610b0b8288610ac9565b601482019150610b1b8287610ac9565b601482019150610b2b8286610ae9565b602082019150610b3b8285610ae9565b602082019150610b4b8284610ac9565b6014820191508190509695505050505050565b5f81905092915050565b7f19457468657265756d205369676e6564204d6573736167653a0a3332000000005f82015250565b5f610b9c601c83610b5e565b9150610ba782610b68565b601c82019050919050565b5f819050919050565b5f819050919050565b610bd5610bd082610bb2565b610bbb565b82525050565b5f610be582610b90565b9150610bf18284610bc4565b60208201915081905092915050565b7f496e76616c6964206e6f6e6365000000000000000000000000000000000000005f82015250565b5f610c34600d83610a23565b9150610c3f82610c00565b602082019050919050565b5f6020820190508181035f830152610c6181610c28565b9050919050565b7f4e487b71000000000000000000000000000000000000000000000000000000005f52601160045260245ffd5b5f610c9f826107d1565b91507fffffffffffffffffffffffffffffffffffffffffffffffffffffffffffffffff8203610cd157610cd0610c68565b5b600182019050919050565b5f604082019050610cef5f830185610802565b610cfc6020830184610802565b9392505050565b5f81519050610d118161082a565b92915050565b5f60208284031215610d2c57610d2b610744565b5b5f610d3984828501610d03565b91505092915050565b7f496e73756666696369656e7420616c6c6f77616e6365000000000000000000005f82015250565b5f610d76601683610a23565b9150610d8182610d42565b602082019050919050565b5f6020820190508181035f830152610da381610d6a565b9050919050565b5f606082019050610dbd5f830186610802565b610dca6020830185610802565b610dd760408301846107da565b949350505050565b5f8115159050919050565b610df381610ddf565b8114610dfd575f80fd5b50565b5f81519050610e0e81610dea565b92915050565b5f60208284031215610e2957610e28610744565b5b5f610e3684828501610e00565b91505092915050565b5f604082019050610e525f8301856107da565b610e5f60208301846107da565b9392505050565b7f4e487b71000000000000000000000000000000000000000000000000000000005f52602160045260245ffd5b610e9c81610bb2565b82525050565b5f602082019050610eb55f830184610e93565b92915050565b5f60ff82169050919050565b610ed081610ebb565b82525050565b5f608082019050610ee95f830187610e93565b610ef66020830186610ec7565b610f036040830185610e93565b610f106060830184610e93565b9594505050505056fea2646970667358221220d9efca59e09cb50f71e9370e4d5d8de7b0b2eed9b2b8fc5dd1da2a0f9cafa64764736f6c63430008140033",
  "immutableReferences": {},
  "source": "// SPDX-License-Identifier: MIT\r\npragma solidity ^0.8.20;\r\n\r\nimport \"@openzeppelin/contracts/utils/cryptography/ECDSA.sol\";\r\nimport \"@openzeppelin/contracts/token/ERC20/IERC20.sol\";\r\n\r\ncontract GaslessForwarder {\r\n    using ECDSA for bytes32;\r\n\r\n    address public relayer;\r\n    mapping(address => uint256) public nonces;\r\n\r\n    event TransactionForwarded(\r\n        address indexed user,\r\n        address indexed tokenContract,\r\n        address indexed to,\r\n        uint256 amount,\r\n        uint256 nonce\r\n    );\r\n\r\n    constructor(address _relayer) {\r\n        relayer = _relayer;\r\n    }\r\n\r\n    function forward(\r\n        address tokenContract,\r\n        address to,\r\n        uint256 amount,\r\n        uint256 nonce,\r\n        bytes memory signature\r\n    ) external {\r\n        require(msg.sender == relayer, \"Only relayer can forward\");\r\n\r\n        bytes32 messageHash = keccak256(abi.encodePacked(tokenContract, to, amount, nonce, address(this)));\r\n\r\n        bytes32 ethSignedMessageHash = keccak256(abi.encodePacked(\"\\x19Ethereum Signed Message:\\n32\", messageHash));\r\n\r\n        address signer = ECDSA.recover(ethSignedMessageHash, signature);\r\n\r\n        require(nonces[signer] == nonce, \"Invalid nonce\");\r\n\r\n        nonces[signer]++;\r\n\r\n        uint256 allowance = IERC20(tokenContract).allowance(signer, address(this));\r\n        require(allowance >= amount, \"Insufficient allowance\");\r\n\r\n        IERC20(tokenContract).transferFrom(signer, to, amount);\r\n        emit TransactionForwarded(signer, tokenContract, to, amount, nonce);\r\n    }\r\n}",
  "sourcePath": "C:\\Users\\ventura\\OneDrive\\Desktop\\round-1-ps-2\\gasless-forwarder\\contracts\\GaslessForwarder.sol",
  "compiler": {
    "name": "solc",
    "version": "0.8.20+commit.a1b79de6.Emscripten.clang"
  },
  "schemaVersion": "3.4.16",
  "updatedAt": "2025-02-16T18:46:53.616Z",
  "devdoc": {
    "errors": {
      "ECDSAInvalidSignature()": [
        {
          "details": "The signature derives the `address(0)`."
        }
      ],
      "ECDSAInvalidSignatureLength(uint256)": [
        {
          "details": "The signature has an invalid length."
        }
      ],
      "ECDSAInvalidSignatureS(bytes32)": [
        {
          "details": "The signature has an S value that is in the upper half order."
        }
      ]
    },
    "kind": "dev",
    "methods": {},
    "version": 1
  },
  "userdoc": {
    "kind": "user",
    "methods": {},
    "version": 1
  }
}